:100000000C9454000C947C000C947C000C947C00A8
:100010000C947C000C947C000C947C000C947C0070
:100020000C947C000C947C000C947C000C947C0060
:100030000C947C000C947C000C947C000C947C0050
:100040000C9465020C947C000C94D5020C94AF02C5
:100050000C947C000C947C000C947C000C947C0030
:100060000C947C000C947C0000000000250028000B
:100070002B0000000000240027002A0004040404D0
:100080000404040402020202020203030303030342
:10009000010204081020408001020408102001021F
:1000A000040810200703D30411241FBECFEFD8E0AB
:1000B000DEBFCDBF22E0A0EBB1E001C01D92A639AA
:1000C000B207E1F711E0A0E0B1E0EEE6FEE002C029
:1000D00005900D92A03BB107D9F710E0C3E5D0E041
:1000E00004C02197FE010E943205C235D107C9F72D
:1000F0000E946F030C942A070C940000AF92BF92E9
:10010000CF92DF92EF92FF920F931F93CF93DF93E3
:100110006C017B018B01040F151FEB015E01AE1812
:10012000BF08C017D10759F06991D601ED91FC9134
:100130000190F081E02DC6010995892B79F7C50161
:10014000DF91CF911F910F91FF90EF90DF90CF90B3
:10015000BF90AF900895FC01538D448D252F30E062
:10016000842F90E0821B930B541710F0CF960895C4
:1001700001970895FC01918D828D981761F0A28DF1
:10018000AE0FBF2FB11D5D968C91928D9F5F9F73B7
:10019000928F90E008958FEF9FEF0895FC01918D6D
:1001A000828D981731F0828DE80FF11D858D90E0DA
:1001B00008958FEF9FEF0895FC01918D228D892F77
:1001C00090E0805C9F4F821B91098F73992708955F
:1001D00089EB91E00E94DC0021E0892B09F420E00A
:1001E000822F089580E090E0892B29F00E94E8009A
:1001F00081110C9400000895FC01A48DA80FB92F63
:10020000B11DA35ABF4F2C91848D90E001968F733E
:100210009927848FA689B7892C93A089B1898C915D
:10022000837080648C93938D848D981306C00288AC
:10023000F389E02D80818F7D80830895EF92FF9276
:100240000F931F93CF93DF93EC0181E0888F9B8DF9
:100250008C8D98131AC0E889F989808185FF15C0B3
:100260009FB7F894EE89FF896083E889F9898081D6
:100270008370806480839FBF81E090E0DF91CF91A5
:100280001F910F91FF90EF900895F62E0B8D10E0C7
:100290000F5F1F4F0F731127E02E8C8D8E110CC036
:1002A0000FB607FCFACFE889F989808185FFF5CF81
:1002B000CE010E94FC00F1CFEB8DEC0FFD2FF11D64
:1002C000E35AFF4FF0829FB7F8940B8FEA89FB89BE
:1002D00080818062CFCFCF93DF93EC01888D88231C
:1002E000B9F0AA89BB89E889F9898C9185FD03C099
:1002F000808186FD0DC00FB607FCF7CF8C9185FF7E
:10030000F2CF808185FFEDCFCE010E94FC00E9CFC6
:10031000DF91CF91089542E050E068E171E089EB10
:1003200091E00C947E00CF93DF93FC0101900020BC
:10033000E9F73197AF01481B590BBC0189EB91E0FC
:100340000E947E00EC010E948B018C0F9D1FDF91AB
:10035000CF910895CF93DF93FC0144815581608153
:10036000718189EB91E00E947E00EC010E948B017B
:100370008C0F9D1FDF91CF910895FC0180819181A9
:10038000009711F00C94D40508950F931F93CF9309
:10039000DF93EC0188819981009759F02A813B8194
:1003A0002617370730F081E0DF91CF911F910F9131
:1003B00008958B016F5F7F4F0E945D06009759F093
:1003C000998388831B830A832C813D81232B59F7D2
:1003D000FC011082E8CF80E0E7CFEF92FF920F930D
:1003E0001F93CF93DF93EC01FB01E080F180E114D8
:1003F000F10411F10481158101151105A9F08C8119
:100400009D81080F191FB801CE010E94C5018823E4
:1004100099F0288139818C819D81B701820F931FCA
:100420000E9423071D830C83CE01DF91CF911F9182
:100430000F91FF90EF90089588819981009711F0B6
:100440000E94D405198218821D821C821B821A8286
:10045000EBCFEF92FF920F931F93CF93DF93EC01BB
:100460007B01198218821B821A821D821C82FB0169
:1004700001900020E9F731978F01061B170BB80197
:100480000E94C50128813981811113C021153105D0
:1004900019F0C9010E94D405198218821D821C829C
:1004A0001B821A82DF91CF911F910F91FF90EF90E5
:1004B00008951D830C83B701C901DF91CF911F916E
:1004C0000F91FF90EF900C9423071F920F920FB69D
:1004D0000F9211242F933F938F939F93AF93BF93CA
:1004E0008091B5019091B601A091B701B091B8018A
:1004F0003091B40123E0230F2D3758F50196A11D4B
:10050000B11D2093B4018093B5019093B601A093DF
:10051000B701B093B8018091B0019091B101A09161
:10052000B201B091B3010196A11DB11D8093B0013C
:100530009093B101A093B201B093B301BF91AF9179
:100540009F918F913F912F910F900FBE0F901F9011
:10055000189526E8230F0296A11DB11DD2CF1F9238
:100560000F920FB60F9211242F933F934F935F93E7
:100570006F937F938F939F93AF93BF93EF93FF936B
:1005800089EB91E00E94FC00FF91EF91BF91AF9148
:100590009F918F917F916F915F914F913F912F919B
:1005A0000F900FBE0F901F9018951F920F920FB6CD
:1005B0000F9211242F938F939F93EF93FF93E091CA
:1005C000C901F091CA018081E091CF01F091D00181
:1005D00082FD1BC090818091D2018F5F8F7320912B
:1005E000D301821741F0E091D201F0E0E754FE4FD1
:1005F000958F8093D201FF91EF919F918F912F91D1
:100600000F900FBE0F901F9018958081F4CFE9EBEB
:10061000F1E01382128288EE93E0A0E0B0E08483E0
:100620009583A683B7838AE091E09183808385ECEC
:1006300090E09587848784EC90E09787868780ECAC
:1006400090E0918B808B81EC90E0938B828B82EC9D
:1006500090E0958B848B86EC90E0978B868B118E47
:10066000128E138E148E6BE171E08CE892E00E9482
:1006700029026BE171E086E892E00E9429026BE1B9
:1006800071E080E892E00E9429026BE171E08AE764
:1006900092E00E9429026BE171E084E792E00E94FF
:1006A00029026BE171E08EE692E00E9429026BE183
:1006B00071E088E692E00E9429026BE171E082E637
:1006C00092E00E9429026BE171E08CE592E00E94C9
:1006D00029026BE171E086E592E00C942902CF9348
:1006E000DF9300D000D000D0CDB7DEB7789484B5CA
:1006F000826084BD84B5816084BD85B5826085BD1E
:1007000085B5816085BD80916E00816080936E00AB
:10071000109281008091810082608093810080919D
:10072000810081608093810080918000816080934E
:1007300080008091B10084608093B1008091B0000E
:1007400081608093B00080917A00846080937A0009
:1007500080917A00826080937A0080917A00816033
:1007600080937A0080917A00806880937A0010925A
:10077000C100E091C901F091CA0182E08083E0915B
:10078000C501F091C6011082E091C701F091C80146
:100790008FEC80831092D101E091CD01F091CE01D8
:1007A00086E08083E091CB01F091CC018081806173
:1007B0008083E091CB01F091CC01808188608083BF
:1007C000E091CB01F091CC01808180688083E09141
:1007D000CB01F091CC0180818F7D8083E2E9F0E054
:1007E0002491EEE7F0E084918823C9F090E0880F2F
:1007F000991FFC01EE58FF4F45915491FC01E859B7
:10080000FF4FA591B4919FB7F894FA013081822FE0
:10081000809583238083EC91E22BEC939FBF61E270
:1008200071E0CE0101960E9429026CE872E0CE01CF
:1008300001960E94ED010E94AA01CE0101960E943C
:10084000BD018BE291E00E9493018FE491E00E9450
:10085000930161E271E0CE0101960E94290266E8EF
:1008600072E0CE0101960E94ED010E94AA01CE0124
:1008700001960E94BD0180E691E00E94930188E606
:1008800091E00E94930161E271E0CE0101960E9425
:10089000290260E872E0CE0101960E94ED010E94FB
:1008A000AA01CE0101960E94BD0188E791E00E9455
:1008B000930161E271E0CE0101960E9429026AE78C
:1008C00072E0CE0101960E94ED010E94AA01CE01C4
:1008D00001960E94BD018EE891E00E94930161E2C1
:1008E00071E0CE0101960E94290264E772E0CE0118
:1008F00001960E94ED010E94AA01CE0101960E947C
:10090000BD0189E991E00E94930161E271E0CE01AD
:1009100001960E9429026EE672E0CE0101960E94C5
:10092000ED010E94AA01CE0101960E94BD018DE950
:1009300091E00E94930161E271E0CE0101960E9474
:10094000290268E672E0CE0101960E94ED010E9444
:10095000AA01CE0101960E94BD0187EA91E00E94A2
:10096000930161E271E0CE0101960E94290262E6E4
:1009700072E0CE0101960E94ED010E94AA01CE0113
:1009800001960E94BD018BEA91E00E94930100E074
:1009900010E001151105E9F30E94E8008823C9F36E
:1009A0000E940000F6CF86E592E00E94BD018CE532
:1009B00092E00E94BD0182E692E00E94BD0188E6BD
:1009C00092E00E94BD018EE692E00E94BD0184E7A4
:1009D00092E00E94BD018AE792E00E94BD0180E89A
:1009E00092E00E94BD0186E892E00E94BD018CE881
:1009F00092E00C94BD012F923F924F925F926F92C2
:100A00007F928F929F92AF92BF92CF92DF92EF929E
:100A1000FF920F931F93CF93DF93CDB7DEB7CA1B1F
:100A2000DB0B0FB6F894DEBF0FBECDBF09942A884A
:100A3000398848885F846E847D848C849B84AA84F2
:100A4000B984C884DF80EE80FD800C811B81AA817F
:100A5000B981CE0FD11D0FB6F894DEBF0FBECDBF4A
:100A6000ED010895EE0FFF1F0590F491E02D09941C
:100A70000F931F93CF93DF938230910510F482E0A0
:100A800090E0E0919402F091950230E020E0B0E037
:100A9000A0E0309799F42115310509F44AC0281BCC
:100AA000390B24303105D8F58A819B816115710598
:100AB00089F1FB0193838283FE0111C04081518142
:100AC0000281138148175907E0F04817590799F434
:100AD000109761F012960C93129713961C9332960E
:100AE000CF01DF91CF911F910F9108950093940250
:100AF00010939502F4CF2115310551F04217530799
:100B000038F0A901DB019A01BD01DF01F801C1CF75
:100B1000EF01F9CF9093950280939402CDCFFE011F
:100B2000E20FF31F81939193225031093983288377
:100B3000D7CF2091920230919302232B41F4209140
:100B4000020130910301309393022093920220918D
:100B50000001309101012115310541F42DB73EB757
:100B60004091040150910501241B350BE091920244
:100B7000F0919302E217F307A0F42E1B3F0B281706
:100B8000390778F0AC014E5F5F4F2417350748F006
:100B90004E0F5F1F50939302409392028193919363
:100BA0009FCFF0E0E0E09CCFCF93DF930097E9F098
:100BB000FC01329713821282A0919402B0919502A7
:100BC000ED0130E020E01097A1F420813181820F07
:100BD000931F20919202309193022817390709F050
:100BE00061C0F0939302E0939202DF91CF91089558
:100BF000EA01CE17DF07E8F54A815B819E014115C6
:100C00005105B1F7E901FB83EA8349915991C40F7A
:100C1000D51FEC17FD0761F4808191810296840F46
:100C2000951FE90199838883828193819B838A83BD
:100C3000F0E0E0E012968D919C9113970097B9F542
:100C40002D913C911197CD010296820F931F209117
:100C50009202309193022817390739F6309751F5EF
:100C60001092950210929402B0939302A093920274
:100C7000BCCFD383C28340815181840F951FC81795
:100C8000D90761F44E5F5F4F88819981480F591FE2
:100C9000518340838A819B8193838283211531050F
:100CA00009F0B0CFF0939502E09394029ECFFD013E
:100CB000DC01C0CF13821282D7CFB0E0A0E0E3E620
:100CC000F6E00C94FD048C01009751F4CB010E94D6
:100CD00038058C01C801CDB7DEB7E0E10C941905E9
:100CE000FC01E60FF71F9C0122503109E217F307C0
:100CF00008F49DC0D901CD91DC911197C617D70793
:100D000098F0C530D10530F3CE01049786179707C8
:100D100008F3C61BD70B2297C193D1936D937C9395
:100D2000CF010E94D405D6CF5B01AC1ABD0A4C019D
:100D30008C0E9D1EA0919402B0919502512C412CD5
:100D4000F12CE12C109731F5809192029091930251
:100D50008815990509F05CC04616570608F058C07A
:100D60008091000190910101009741F48DB79EB7E9
:100D70004091040150910501841B950BE817F90778
:100D800008F055C0F0939302E0939202F901718349
:100D90006083A0CF8D919C91119712966C901297C1
:100DA00013967C901397A815B90559F56C0142E08C
:100DB000C40ED11CCA14DB0420F1AC014A195B0932
:100DC000DA011296159780F0628273825183408314
:100DD000D9016D937C93E114F10471F0D70113965E
:100DE000FC93EE93129776CF22968C0F9D1FF901FC
:100DF00091838083F301EFCFF0939502E093940207
:100E000069CF4816590608F42C017D01D3019ACF09
:100E1000CB010E9438057C01009749F0AE01B80172
:100E20000E941A07C8010E94D405870153CF10E021
:100E300000E050CFFB01DC0102C001900D92415057
:100E40005040D8F70895FB01DC0101900D9200207D
:100E5000E1F7089510E0C3E5D0E004C0FE010E9470
:0E0E600032052196C435D107C9F7F894FFCFAB
:100E6E00000096028000000000001E017E00AB0014
:100E7E006B01DC00BA00CE000D0A00477265656E8C
:100E8E0000537461747573203D20002D20562F532E
:100E9E0020E0B899E0B8992E20E0B884E0B8A7E039
:100EAE00B8B2E0B8A1E0B894E0B8B1E0B899002DBE
:100EBE00204578712C4142492C696E626F6479002D
:100ECE002D20582D72617900582D72617920E0B86D
:100EDE009BE0B8ADE0B89400E0B8ABE0B8B1E0B8D4
:100EEE00A7E0B983E0B8882048656172740046694E
:100EFE0062726F207363616E0043594E00446965E0
:100F0E0074697469616E0045796500454E54000040
:00000001FF
